{
  "abi": [
    {
      "inputs": [
        {
          "internalType": "string",
          "name": "_name",
          "type": "string"
        },
        {
          "internalType": "string",
          "name": "_symbol",
          "type": "string"
        },
        {
          "internalType": "uint256",
          "name": "_ETHPerToken",
          "type": "uint256"
        }
      ],
      "stateMutability": "nonpayable",
      "type": "constructor"
    },
    {
      "inputs": [],
      "name": "AlreadyMinted",
      "type": "error"
    },
    {
      "inputs": [],
      "name": "BurnInvalidSignature",
      "type": "error"
    },
    {
      "inputs": [],
      "name": "ECDSAInvalidSignature",
      "type": "error"
    },
    {
      "inputs": [],
      "name": "InvalidRecipient",
      "type": "error"
    },
    {
      "inputs": [],
      "name": "NativeTransferFailed",
      "type": "error"
    },
    {
      "inputs": [],
      "name": "NotAuthorized",
      "type": "error"
    },
    {
      "inputs": [],
      "name": "NotAuthorized",
      "type": "error"
    },
    {
      "inputs": [],
      "name": "NotEnoughERC20",
      "type": "error"
    },
    {
      "inputs": [],
      "name": "NotEnoughETH",
      "type": "error"
    },
    {
      "inputs": [],
      "name": "NotMinted",
      "type": "error"
    },
    {
      "inputs": [],
      "name": "UnsafeRecipient",
      "type": "error"
    },
    {
      "inputs": [],
      "name": "WrongFrom",
      "type": "error"
    },
    {
      "anonymous": false,
      "inputs": [
        {
          "indexed": true,
          "internalType": "address",
          "name": "owner",
          "type": "address"
        },
        {
          "indexed": true,
          "internalType": "address",
          "name": "spender",
          "type": "address"
        },
        {
          "indexed": true,
          "internalType": "uint256",
          "name": "id",
          "type": "uint256"
        }
      ],
      "name": "Approval",
      "type": "event"
    },
    {
      "anonymous": false,
      "inputs": [
        {
          "indexed": true,
          "internalType": "address",
          "name": "owner",
          "type": "address"
        },
        {
          "indexed": true,
          "internalType": "address",
          "name": "operator",
          "type": "address"
        },
        {
          "indexed": false,
          "internalType": "bool",
          "name": "approved",
          "type": "bool"
        }
      ],
      "name": "ApprovalForAll",
      "type": "event"
    },
    {
      "anonymous": false,
      "inputs": [
        {
          "indexed": false,
          "internalType": "address",
          "name": "",
          "type": "address"
        },
        {
          "indexed": false,
          "internalType": "uint256",
          "name": "value",
          "type": "uint256"
        }
      ],
      "name": "ContractRefill",
      "type": "event"
    },
    {
      "anonymous": false,
      "inputs": [
        {
          "indexed": false,
          "internalType": "address",
          "name": "",
          "type": "address"
        },
        {
          "indexed": false,
          "internalType": "uint256",
          "name": "value",
          "type": "uint256"
        }
      ],
      "name": "ETHperTokenUpdated",
      "type": "event"
    },
    {
      "anonymous": false,
      "inputs": [
        {
          "indexed": true,
          "internalType": "address",
          "name": "previousOwner",
          "type": "address"
        },
        {
          "indexed": true,
          "internalType": "address",
          "name": "newOwner",
          "type": "address"
        }
      ],
      "name": "OwnershipTransferred",
      "type": "event"
    },
    {
      "anonymous": false,
      "inputs": [
        {
          "indexed": true,
          "internalType": "address",
          "name": "from",
          "type": "address"
        },
        {
          "indexed": true,
          "internalType": "address",
          "name": "to",
          "type": "address"
        },
        {
          "indexed": true,
          "internalType": "uint256",
          "name": "id",
          "type": "uint256"
        }
      ],
      "name": "Transfer",
      "type": "event"
    },
    {
      "inputs": [],
      "name": "ETHperToken",
      "outputs": [
        {
          "internalType": "uint256",
          "name": "",
          "type": "uint256"
        }
      ],
      "stateMutability": "view",
      "type": "function"
    },
    {
      "inputs": [
        {
          "internalType": "address",
          "name": "spender",
          "type": "address"
        },
        {
          "internalType": "uint256",
          "name": "id",
          "type": "uint256"
        }
      ],
      "name": "approve",
      "outputs": [],
      "stateMutability": "nonpayable",
      "type": "function"
    },
    {
      "inputs": [
        {
          "internalType": "address",
          "name": "",
          "type": "address"
        }
      ],
      "name": "balanceOf",
      "outputs": [
        {
          "internalType": "uint256",
          "name": "",
          "type": "uint256"
        }
      ],
      "stateMutability": "view",
      "type": "function"
    },
    {
      "inputs": [
        {
          "internalType": "address[]",
          "name": "to",
          "type": "address[]"
        },
        {
          "internalType": "uint256",
          "name": "value",
          "type": "uint256"
        },
        {
          "internalType": "address",
          "name": "erc20addr",
          "type": "address"
        }
      ],
      "name": "batchMint",
      "outputs": [],
      "stateMutability": "nonpayable",
      "type": "function"
    },
    {
      "inputs": [
        {
          "internalType": "uint256",
          "name": "tokenId",
          "type": "uint256"
        }
      ],
      "name": "burn",
      "outputs": [],
      "stateMutability": "nonpayable",
      "type": "function"
    },
    {
      "inputs": [
        {
          "internalType": "bytes",
          "name": "signature",
          "type": "bytes"
        },
        {
          "internalType": "address",
          "name": "owner",
          "type": "address"
        },
        {
          "internalType": "uint256",
          "name": "tokenId",
          "type": "uint256"
        }
      ],
      "name": "burnFromSignature",
      "outputs": [],
      "stateMutability": "nonpayable",
      "type": "function"
    },
    {
      "inputs": [
        {
          "internalType": "uint256",
          "name": "",
          "type": "uint256"
        }
      ],
      "name": "getApproved",
      "outputs": [
        {
          "internalType": "address",
          "name": "",
          "type": "address"
        }
      ],
      "stateMutability": "view",
      "type": "function"
    },
    {
      "inputs": [
        {
          "internalType": "address",
          "name": "",
          "type": "address"
        },
        {
          "internalType": "address",
          "name": "",
          "type": "address"
        }
      ],
      "name": "isApprovedForAll",
      "outputs": [
        {
          "internalType": "bool",
          "name": "",
          "type": "bool"
        }
      ],
      "stateMutability": "view",
      "type": "function"
    },
    {
      "inputs": [
        {
          "internalType": "address",
          "name": "to",
          "type": "address"
        },
        {
          "internalType": "uint256",
          "name": "value",
          "type": "uint256"
        },
        {
          "internalType": "address",
          "name": "erc20addr",
          "type": "address"
        }
      ],
      "name": "mint",
      "outputs": [],
      "stateMutability": "nonpayable",
      "type": "function"
    },
    {
      "inputs": [],
      "name": "name",
      "outputs": [
        {
          "internalType": "string",
          "name": "",
          "type": "string"
        }
      ],
      "stateMutability": "view",
      "type": "function"
    },
    {
      "inputs": [],
      "name": "nextTokenId",
      "outputs": [
        {
          "internalType": "uint256",
          "name": "",
          "type": "uint256"
        }
      ],
      "stateMutability": "view",
      "type": "function"
    },
    {
      "inputs": [],
      "name": "owner",
      "outputs": [
        {
          "internalType": "address",
          "name": "",
          "type": "address"
        }
      ],
      "stateMutability": "view",
      "type": "function"
    },
    {
      "inputs": [
        {
          "internalType": "uint256",
          "name": "",
          "type": "uint256"
        }
      ],
      "name": "ownerOf",
      "outputs": [
        {
          "internalType": "address",
          "name": "",
          "type": "address"
        }
      ],
      "stateMutability": "view",
      "type": "function"
    },
    {
      "inputs": [],
      "name": "renounceOwnership",
      "outputs": [],
      "stateMutability": "nonpayable",
      "type": "function"
    },
    {
      "inputs": [
        {
          "internalType": "address",
          "name": "",
          "type": "address"
        }
      ],
      "name": "reservedERC20",
      "outputs": [
        {
          "internalType": "uint256",
          "name": "",
          "type": "uint256"
        }
      ],
      "stateMutability": "view",
      "type": "function"
    },
    {
      "inputs": [],
      "name": "reservedEth",
      "outputs": [
        {
          "internalType": "uint256",
          "name": "",
          "type": "uint256"
        }
      ],
      "stateMutability": "view",
      "type": "function"
    },
    {
      "inputs": [
        {
          "internalType": "address",
          "name": "from",
          "type": "address"
        },
        {
          "internalType": "address",
          "name": "to",
          "type": "address"
        },
        {
          "internalType": "uint256",
          "name": "id",
          "type": "uint256"
        }
      ],
      "name": "safeTransferFrom",
      "outputs": [],
      "stateMutability": "nonpayable",
      "type": "function"
    },
    {
      "inputs": [
        {
          "internalType": "address",
          "name": "from",
          "type": "address"
        },
        {
          "internalType": "address",
          "name": "to",
          "type": "address"
        },
        {
          "internalType": "uint256",
          "name": "id",
          "type": "uint256"
        },
        {
          "internalType": "bytes",
          "name": "data",
          "type": "bytes"
        }
      ],
      "name": "safeTransferFrom",
      "outputs": [],
      "stateMutability": "nonpayable",
      "type": "function"
    },
    {
      "inputs": [
        {
          "internalType": "address",
          "name": "operator",
          "type": "address"
        },
        {
          "internalType": "bool",
          "name": "approved",
          "type": "bool"
        }
      ],
      "name": "setApprovalForAll",
      "outputs": [],
      "stateMutability": "nonpayable",
      "type": "function"
    },
    {
      "inputs": [
        {
          "internalType": "bytes4",
          "name": "interfaceId",
          "type": "bytes4"
        }
      ],
      "name": "supportsInterface",
      "outputs": [
        {
          "internalType": "bool",
          "name": "",
          "type": "bool"
        }
      ],
      "stateMutability": "view",
      "type": "function"
    },
    {
      "inputs": [],
      "name": "symbol",
      "outputs": [
        {
          "internalType": "string",
          "name": "",
          "type": "string"
        }
      ],
      "stateMutability": "view",
      "type": "function"
    },
    {
      "inputs": [
        {
          "internalType": "uint256",
          "name": "",
          "type": "uint256"
        }
      ],
      "name": "tokenIdToERC20",
      "outputs": [
        {
          "internalType": "address",
          "name": "",
          "type": "address"
        }
      ],
      "stateMutability": "view",
      "type": "function"
    },
    {
      "inputs": [
        {
          "internalType": "uint256",
          "name": "",
          "type": "uint256"
        }
      ],
      "name": "tokenURI",
      "outputs": [
        {
          "internalType": "string",
          "name": "",
          "type": "string"
        }
      ],
      "stateMutability": "pure",
      "type": "function"
    },
    {
      "inputs": [
        {
          "internalType": "address",
          "name": "from",
          "type": "address"
        },
        {
          "internalType": "address",
          "name": "to",
          "type": "address"
        },
        {
          "internalType": "uint256",
          "name": "id",
          "type": "uint256"
        }
      ],
      "name": "transferFrom",
      "outputs": [],
      "stateMutability": "nonpayable",
      "type": "function"
    },
    {
      "inputs": [
        {
          "internalType": "address",
          "name": "newOwner",
          "type": "address"
        }
      ],
      "name": "transferOwnership",
      "outputs": [],
      "stateMutability": "nonpayable",
      "type": "function"
    },
    {
      "inputs": [
        {
          "internalType": "uint256",
          "name": "_ETHperToken",
          "type": "uint256"
        }
      ],
      "name": "updateETHperToken",
      "outputs": [],
      "stateMutability": "nonpayable",
      "type": "function"
    },
    {
      "inputs": [
        {
          "internalType": "uint256",
          "name": "",
          "type": "uint256"
        }
      ],
      "name": "voucherValue",
      "outputs": [
        {
          "internalType": "uint256",
          "name": "",
          "type": "uint256"
        }
      ],
      "stateMutability": "view",
      "type": "function"
    },
    {
      "inputs": [
        {
          "internalType": "address",
          "name": "to",
          "type": "address"
        }
      ],
      "name": "withdrawUnreservedETH",
      "outputs": [],
      "stateMutability": "nonpayable",
      "type": "function"
    },
    {
      "stateMutability": "payable",
      "type": "receive"
    }
  ],
  "bytecode": {
    "object": "0x6101406040523480156200001257600080fd5b506040516200251a3803806200251a83398101604081905262000035916200032f565b6040518060400160405280600e81526020016d2632b233b2b9102b37bab1b432b960911b815250604051806040016040528060018152602001603160f81b81525084848181816000908051906020019062000092929190620001bc565b508051620000a8906001906020840190620001bc565b5050505050620000c7620000c16200016660201b60201c565b6200016a565b815160209283012081519183019190912060e08290526101008190524660a0818152604080517f8b73c3c69bb8fe3d512ecc4cf759cc79239f7b179b0ffacaa9a75d522b39400f818801819052818301969096526060810194909452608080850193909352308483018190528151808603909301835260c09485019091528151919095012090529190915261012052600b5550506001600955620003df565b3390565b600680546001600160a01b038381166001600160a01b0319831681179093556040519116919082907f8be0079c531659141344cd1fd0a4f28419497f9722a3daafe3b4186f6b6457e090600090a35050565b828054620001ca90620003a2565b90600052602060002090601f016020900481019282620001ee576000855562000239565b82601f106200020957805160ff191683800117855562000239565b8280016001018555821562000239579182015b82811115620002395782518255916020019190600101906200021c565b50620002479291506200024b565b5090565b5b808211156200024757600081556001016200024c565b634e487b7160e01b600052604160045260246000fd5b600082601f8301126200028a57600080fd5b81516001600160401b0380821115620002a757620002a762000262565b604051601f8301601f19908116603f01168101908282118183101715620002d257620002d262000262565b81604052838152602092508683858801011115620002ef57600080fd5b600091505b83821015620003135785820183015181830184015290820190620002f4565b83821115620003255760008385830101525b9695505050505050565b6000806000606084860312156200034557600080fd5b83516001600160401b03808211156200035d57600080fd5b6200036b8783880162000278565b945060208601519150808211156200038257600080fd5b50620003918682870162000278565b925050604084015190509250925092565b600181811c90821680620003b757607f821691505b60208210811415620003d957634e487b7160e01b600052602260045260246000fd5b50919050565b60805160a05160c05160e05161010051610120516120eb6200042f600039600061171d0152600061176c01526000611747015260006116a0015260006116ca015260006116f401526120eb6000f3fe6080604052600436106101bb5760003560e01c8063715018a6116100ec578063bdfa9e341161008a578063f2fde38b11610064578063f2fde38b14610597578063f326d84f146105b7578063f6ed9177146105d7578063f787dd11146105ed57600080fd5b8063bdfa9e341461051b578063c87b56dd1461053b578063e985e9c51461055c57600080fd5b806395d89b41116100c657806395d89b4114610490578063a06e8c87146104a5578063a22cb465146104db578063b88d4fde146104fb57600080fd5b8063715018a61461044757806375794a3c1461045c5780638da5cb5b1461047257600080fd5b806323b872dd1161015957806342842e0e1161013357806342842e0e146103a457806342966c68146103c45780636352211e146103e457806370a082311461041a57600080fd5b806323b872dd14610341578063309834a71461036157806331b4163a1461038e57600080fd5b8063081812fc11610195578063081812fc14610291578063095ea7b3146102df5780630d4d151314610301578063101cafa81461032157600080fd5b806301ffc9a7146101ff57806303e159791461023457806306fdde031461026f57600080fd5b366101fa57604080513381523460208201527f3ac93eec871bdd6d0b9115270613247b0531a606db9839f08603f36e92881458910160405180910390a1005b600080fd5b34801561020b57600080fd5b5061021f61021a366004611b21565b61060d565b60405190151581526020015b60405180910390f35b34801561024057600080fd5b5061026161024f366004611b45565b60076020526000908152604090205481565b60405190815260200161022b565b34801561027b57600080fd5b5061028461065f565b60405161022b9190611bab565b34801561029d57600080fd5b506102c76102ac366004611b45565b6004602052600090815260409020546001600160a01b031681565b6040516001600160a01b03909116815260200161022b565b3480156102eb57600080fd5b506102ff6102fa366004611bda565b6106ed565b005b34801561030d57600080fd5b506102ff61031c366004611c04565b6107b3565b34801561032d57600080fd5b506102ff61033c366004611c40565b610934565b34801561034d57600080fd5b506102ff61035c366004611c5b565b6109fa565b34801561036d57600080fd5b5061026161037c366004611c40565b600c6020526000908152604090205481565b34801561039a57600080fd5b50610261600a5481565b3480156103b057600080fd5b506102ff6103bf366004611c5b565b610b68565b3480156103d057600080fd5b506102ff6103df366004611b45565b610c3d565b3480156103f057600080fd5b506102c76103ff366004611b45565b6003602052600090815260409020546001600160a01b031681565b34801561042657600080fd5b50610261610435366004611c40565b60026020526000908152604090205481565b34801561045357600080fd5b506102ff610c81565b34801561046857600080fd5b5061026160095481565b34801561047e57600080fd5b506006546001600160a01b03166102c7565b34801561049c57600080fd5b50610284610cb7565b3480156104b157600080fd5b506102c76104c0366004611b45565b6008602052600090815260409020546001600160a01b031681565b3480156104e757600080fd5b506102ff6104f6366004611ca5565b610cc4565b34801561050757600080fd5b506102ff610516366004611d7f565b610d30565b34801561052757600080fd5b506102ff610536366004611de7565b610df7565b34801561054757600080fd5b50610284610556366004611b45565b50606090565b34801561056857600080fd5b5061021f610577366004611e73565b600560209081526000928352604080842090915290825290205460ff1681565b3480156105a357600080fd5b506102ff6105b2366004611c40565b610fd3565b3480156105c357600080fd5b506102ff6105d2366004611b45565b61106b565b3480156105e357600080fd5b50610261600b5481565b3480156105f957600080fd5b506102ff610608366004611ea6565b61111c565b60006301ffc9a760e01b6001600160e01b03198316148061063e57506380ac58cd60e01b6001600160e01b03198316145b806106595750635b5e139f60e01b6001600160e01b03198316145b92915050565b6000805461066c90611eed565b80601f016020809104026020016040519081016040528092919081815260200182805461069890611eed565b80156106e55780601f106106ba576101008083540402835291602001916106e5565b820191906000526020600020905b8154815290600101906020018083116106c857829003601f168201915b505050505081565b6000818152600360205260409020546001600160a01b031633811480159061073957506001600160a01b038116600090815260056020908152604080832033845290915290205460ff16155b156107575760405163ea8e4eb560e01b815260040160405180910390fd5b60008281526004602052604080822080546001600160a01b0319166001600160a01b0387811691821790925591518593918516917f8c5be1e5ebec7d5bd14f71427d1e84f3dd0314c0f7b2291e5b200ac8c7c3b92591a4505050565b6006546001600160a01b031633146107e65760405162461bcd60e51b81526004016107dd90611f28565b60405180910390fd5b600a54600b546107f69190611f73565b47101561081657604051632c1d501360e11b815260040160405180910390fd5b6001600160a01b0381166000908152600c60205260409020546108399083611f73565b6040516370a0823160e01b81523060048201526001600160a01b038316906370a0823190602401602060405180830381865afa15801561087d573d6000803e3d6000fd5b505050506040513d601f19601f820116820180604052508101906108a19190611f8b565b10156108c057604051631b2ed77560e31b815260040160405180910390fd5b6108cc83600954611237565b600b54600a8054909101905560098054600090815260086020908152604080832080546001600160a01b039096166001600160a01b03199096168617905583546001810190945592825260078152828220859055928152600c90925290208054909101905550565b6006546001600160a01b0316331461095e5760405162461bcd60e51b81526004016107dd90611f28565b6000600a544761096e9190611fa4565b90506000826001600160a01b03168260405160006040518083038185875af1925050503d80600081146109bd576040519150601f19603f3d011682016040523d82523d6000602084013e6109c2565b606091505b50509050806109e457604051633d2cec6f60e21b815260040160405180910390fd5b47600a54146109f5576109f5611fbb565b505050565b6000818152600360205260409020546001600160a01b03848116911614610a345760405163c6de3f2560e01b815260040160405180910390fd5b6001600160a01b038216610a5b57604051634e46966960e11b815260040160405180910390fd5b336001600160a01b03841614801590610a8b57506000818152600460205260409020546001600160a01b03163314155b8015610abb57506001600160a01b038316600090815260056020908152604080832033845290915290205460ff16155b15610ad95760405163ea8e4eb560e01b815260040160405180910390fd5b6001600160a01b0380841660008181526002602090815260408083208054600019019055938616808352848320805460010190558583526003825284832080546001600160a01b03199081168317909155600490925284832080549092169091559251849392917fddf252ad1be2c89b69c2b068fc378daa952ba7f163c4a11628f55a4df523b3ef91a4505050565b610b738383836109fa565b6001600160a01b0382163b15801590610c1f5750604051630a85bd0160e11b8082523360048301526001600160a01b03858116602484015260448301849052608060648401526000608484015290919084169063150b7a029060a4016020604051808303816000875af1158015610bee573d6000803e3d6000fd5b505050506040513d601f19601f82011682018060405250810190610c129190611fd1565b6001600160e01b03191614155b156109f557604051633da6393160e01b815260040160405180910390fd5b6000818152600360205260409020546001600160a01b03163314610c745760405163ea8e4eb560e01b815260040160405180910390fd5b610c7e338261130c565b50565b6006546001600160a01b03163314610cab5760405162461bcd60e51b81526004016107dd90611f28565b610cb56000611456565b565b6001805461066c90611eed565b3360008181526005602090815260408083206001600160a01b03871680855290835292819020805460ff191686151590811790915590519081529192917f17307eab39ab6107e8899845ad3d59bd9653f200f220920489ca2b5937696c31910160405180910390a35050565b610d3b8484846109fa565b6001600160a01b0383163b15801590610dd35750604051630a85bd0160e11b808252906001600160a01b0385169063150b7a0290610d83903390899088908890600401611fee565b6020604051808303816000875af1158015610da2573d6000803e3d6000fd5b505050506040513d601f19601f82011682018060405250810190610dc69190611fd1565b6001600160e01b03191614155b15610df157604051633da6393160e01b815260040160405180910390fd5b50505050565b6006546001600160a01b03163314610e215760405162461bcd60e51b81526004016107dd90611f28565b600a54600b54849190610e3590839061202b565b610e3f9190611f73565b471015610e5f57604051632c1d501360e11b815260040160405180910390fd5b6001600160a01b0382166000908152600c6020526040902054610e82828561202b565b610e8c9190611f73565b6040516370a0823160e01b81523060048201526001600160a01b038416906370a0823190602401602060405180830381865afa158015610ed0573d6000803e3d6000fd5b505050506040513d601f19601f82011682018060405250810190610ef49190611f8b565b1015610f1357604051631b2ed77560e31b815260040160405180910390fd5b60005b81811015610f9a57610f50868683818110610f3357610f3361204a565b9050602002016020810190610f489190611c40565b600954611237565b60098054600090815260086020908152604080832080546001600160a01b0319166001600160a01b0389161790558354600181810190955583526007909152902085905501610f16565b50600b54600a805491830290910190556001600160a01b03919091166000908152600c6020526040902080549290910290910190555050565b6006546001600160a01b03163314610ffd5760405162461bcd60e51b81526004016107dd90611f28565b6001600160a01b0381166110625760405162461bcd60e51b815260206004820152602660248201527f4f776e61626c653a206e6577206f776e657220697320746865207a65726f206160448201526564647265737360d01b60648201526084016107dd565b610c7e81611456565b6006546001600160a01b031633146110955760405162461bcd60e51b81526004016107dd90611f28565b6000600b5482600a546110a8919061202b565b6110b29190612060565b9050478111156110d557604051632c1d501360e11b815260040160405180910390fd5b600b829055600a81905560408051338152602081018490527f44b20b6d75574896dff729321a2455c0ac86a8cd16ac263083c4b8f4254fdcdf910160405180910390a15050565b6000818152600360205260409020546001600160a01b038381169116146111565760405163ea8e4eb560e01b815260040160405180910390fd5b604080517fffc1987b373974f582c8250b50792f3d7fc3790199bdbf20b07dc297919822e560208201526001600160a01b03841691810191909152606081018290526000906111bd90608001604051602081830303815290604052805190602001206114a8565b905060006111cb82866114f6565b9050836001600160a01b0316816001600160a01b0316146111ff57604051634b58791160e11b815260040160405180910390fd5b6001600160a01b0381166112265760405163f645eedf60e01b815260040160405180910390fd5b611230848461130c565b5050505050565b611241828261151a565b6001600160a01b0382163b158015906112ea5750604051630a85bd0160e11b80825233600483015260006024830181905260448301849052608060648401526084830152906001600160a01b0384169063150b7a029060a4016020604051808303816000875af11580156112b9573d6000803e3d6000fd5b505050506040513d601f19601f820116820180604052508101906112dd9190611fd1565b6001600160e01b03191614155b1561130857604051633da6393160e01b815260040160405180910390fd5b5050565b6000818152600860209081526040808320546007909252909120546001600160a01b039091169061133c836115e2565b6000838152600760209081526040808320839055600b54600a80549190910390556001600160a01b03858116808552600c90935292819020805485900390555163a9059cbb60e01b81529186166004830152602482018390529063a9059cbb906044016020604051808303816000875af11580156113be573d6000803e3d6000fd5b505050506040513d601f19601f820116820180604052508101906113e29190612082565b50600b546040516000916001600160a01b038716918381818185875af1925050503d806000811461142f576040519150601f19603f3d011682016040523d82523d6000602084013e611434565b606091505b505090508061123057604051633d2cec6f60e21b815260040160405180910390fd5b600680546001600160a01b038381166001600160a01b0319831681179093556040519116919082907f8be0079c531659141344cd1fd0a4f28419497f9722a3daafe3b4186f6b6457e090600090a35050565b60006106596114b5611693565b8360405161190160f01b6020820152602281018390526042810182905260009060620160405160208183030381529060405280519060200120905092915050565b600080600061150585856117ba565b915091506115128161182a565b509392505050565b6001600160a01b03821661154157604051634e46966960e11b815260040160405180910390fd5b6000818152600360205260409020546001600160a01b03161561157757604051631bbdf5c560e31b815260040160405180910390fd5b6001600160a01b038216600081815260026020908152604080832080546001019055848352600390915280822080546001600160a01b0319168417905551839291907fddf252ad1be2c89b69c2b068fc378daa952ba7f163c4a11628f55a4df523b3ef908290a45050565b6000818152600360205260409020546001600160a01b03168061161857604051634d5e5fb360e01b815260040160405180910390fd5b6001600160a01b038116600081815260026020908152604080832080546000190190558583526003825280832080546001600160a01b031990811690915560049092528083208054909216909155518492907fddf252ad1be2c89b69c2b068fc378daa952ba7f163c4a11628f55a4df523b3ef908390a45050565b6000306001600160a01b037f0000000000000000000000000000000000000000000000000000000000000000161480156116ec57507f000000000000000000000000000000000000000000000000000000000000000046145b1561171657507f000000000000000000000000000000000000000000000000000000000000000090565b50604080517f00000000000000000000000000000000000000000000000000000000000000006020808301919091527f0000000000000000000000000000000000000000000000000000000000000000828401527f000000000000000000000000000000000000000000000000000000000000000060608301524660808301523060a0808401919091528351808403909101815260c0909201909252805191012090565b6000808251604114156117f15760208301516040840151606085015160001a6117e5878285856119e5565b94509450505050611823565b82516040141561181b5760208301516040840151611810868383611ad2565b935093505050611823565b506000905060025b9250929050565b600081600481111561183e5761183e61209f565b14156118475750565b600181600481111561185b5761185b61209f565b14156118a95760405162461bcd60e51b815260206004820152601860248201527f45434453413a20696e76616c6964207369676e6174757265000000000000000060448201526064016107dd565b60028160048111156118bd576118bd61209f565b141561190b5760405162461bcd60e51b815260206004820152601f60248201527f45434453413a20696e76616c6964207369676e6174757265206c656e6774680060448201526064016107dd565b600381600481111561191f5761191f61209f565b14156119785760405162461bcd60e51b815260206004820152602260248201527f45434453413a20696e76616c6964207369676e6174757265202773272076616c604482015261756560f01b60648201526084016107dd565b600481600481111561198c5761198c61209f565b1415610c7e5760405162461bcd60e51b815260206004820152602260248201527f45434453413a20696e76616c6964207369676e6174757265202776272076616c604482015261756560f01b60648201526084016107dd565b6000807f7fffffffffffffffffffffffffffffff5d576e7357a4501ddfe92f46681b20a0831115611a1c5750600090506003611ac9565b8460ff16601b14158015611a3457508460ff16601c14155b15611a455750600090506004611ac9565b6040805160008082526020820180845289905260ff881692820192909252606081018690526080810185905260019060a0016020604051602081039080840390855afa158015611a99573d6000803e3d6000fd5b5050604051601f1901519150506001600160a01b038116611ac257600060019250925050611ac9565b9150600090505b94509492505050565b6000806001600160ff1b03831681611aef60ff86901c601b611f73565b9050611afd878288856119e5565b935093505050935093915050565b6001600160e01b031981168114610c7e57600080fd5b600060208284031215611b3357600080fd5b8135611b3e81611b0b565b9392505050565b600060208284031215611b5757600080fd5b5035919050565b6000815180845260005b81811015611b8457602081850181015186830182015201611b68565b81811115611b96576000602083870101525b50601f01601f19169290920160200192915050565b602081526000611b3e6020830184611b5e565b80356001600160a01b0381168114611bd557600080fd5b919050565b60008060408385031215611bed57600080fd5b611bf683611bbe565b946020939093013593505050565b600080600060608486031215611c1957600080fd5b611c2284611bbe565b925060208401359150611c3760408501611bbe565b90509250925092565b600060208284031215611c5257600080fd5b611b3e82611bbe565b600080600060608486031215611c7057600080fd5b611c7984611bbe565b9250611c8760208501611bbe565b9150604084013590509250925092565b8015158114610c7e57600080fd5b60008060408385031215611cb857600080fd5b611cc183611bbe565b91506020830135611cd181611c97565b809150509250929050565b634e487b7160e01b600052604160045260246000fd5b600082601f830112611d0357600080fd5b813567ffffffffffffffff80821115611d1e57611d1e611cdc565b604051601f8301601f19908116603f01168101908282118183101715611d4657611d46611cdc565b81604052838152866020858801011115611d5f57600080fd5b836020870160208301376000602085830101528094505050505092915050565b60008060008060808587031215611d9557600080fd5b611d9e85611bbe565b9350611dac60208601611bbe565b925060408501359150606085013567ffffffffffffffff811115611dcf57600080fd5b611ddb87828801611cf2565b91505092959194509250565b60008060008060608587031215611dfd57600080fd5b843567ffffffffffffffff80821115611e1557600080fd5b818701915087601f830112611e2957600080fd5b813581811115611e3857600080fd5b8860208260051b8501011115611e4d57600080fd5b602092830196509450508501359150611e6860408601611bbe565b905092959194509250565b60008060408385031215611e8657600080fd5b611e8f83611bbe565b9150611e9d60208401611bbe565b90509250929050565b600080600060608486031215611ebb57600080fd5b833567ffffffffffffffff811115611ed257600080fd5b611ede86828701611cf2565b935050611c8760208501611bbe565b600181811c90821680611f0157607f821691505b60208210811415611f2257634e487b7160e01b600052602260045260246000fd5b50919050565b6020808252818101527f4f776e61626c653a2063616c6c6572206973206e6f7420746865206f776e6572604082015260600190565b634e487b7160e01b600052601160045260246000fd5b60008219821115611f8657611f86611f5d565b500190565b600060208284031215611f9d57600080fd5b5051919050565b600082821015611fb657611fb6611f5d565b500390565b634e487b7160e01b600052600160045260246000fd5b600060208284031215611fe357600080fd5b8151611b3e81611b0b565b6001600160a01b038581168252841660208201526040810183905260806060820181905260009061202190830184611b5e565b9695505050505050565b600081600019048311821515161561204557612045611f5d565b500290565b634e487b7160e01b600052603260045260246000fd5b60008261207d57634e487b7160e01b600052601260045260246000fd5b500490565b60006020828403121561209457600080fd5b8151611b3e81611c97565b634e487b7160e01b600052602160045260246000fdfea2646970667358221220fc3677582beef8f92c23c745a28cfe30c53333b5d994779a3d56f52b6338789364736f6c634300080c0033",
    "linkReferences": {}
  }
}